:020000020000FC
:10000000C7C01895189518951895189518951895AE
:1000100018958FC3189518951895189518951895D3
:100020001895DDC01895189518951895B0C01895B5
:10003000D7C0189554494D45202020204469616D52
:100040006574657220202020202020202020202080
:1000500020202020202020202020202020202020A0
:100060002020202020205665722E30314F4F4FCB5C
:10007000584BA4CAAF484550A14FCB20762E303103
:10008000204469616D657465722044202020202021
:10009000206D6D204D696E2039396D6D20204D61C8
:1000A00078203939306D6D20204865696768742083
:1000B0002020482020202020206D6D204D696E20BA
:1000C00039396D6D20204D6178203939306D6D20C2
:1000D00020576972652020202020642020202020C5
:1000E000206D696C4D696E2030356D696C204D61F5
:1000F00078203235306D696C204C656E67687420ED
:1001000020204C2020202020206D20204D696E20B2
:1001100031306D2020204D6178203530306D202029
:1001200055702020202020202020446F776E202032
:100130002020202044656320202020202020496E9C
:10014000632020202020202053617665202020205D
:1001500020204C6F616420202020202052756E20CA
:1001600020202020202053746F7020202020202069
:10017000F999FECF22BD11BD00BDFA9AF99A0895F2
:10018000F999FECF22BD11BDF89A00B508951895D2
:10019000F89402E00EBF0FEF0DBF00E004B900E0DD
:1001A00005B900E007B900E008B900E00AB900E0CD
:1001B0000BB907E00093B10001E00093700000E884
:1001C00000BFF894A89504B7007004BF00916000C8
:1001D00008610093600000E000936000FEC2189583
:1001E0001895CF93DF930F931F93C0E0D1E0009158
:1001F00011011127C4D00AE30993009110011127BE
:10020000BED00AE3099300910F011127B8D0E0E0B6
:10021000F1E000EC40D11F910F91DF91CF91089553
:1002200000910C010093BB0004E80093BC0008950A
:1002300004EA0093BC000091BC0007FFFCCF0895C6
:1002400000910D010093BB0004E80093BC00F3CFC4
:1002500004EC0093BC000091BC0007FFFCCF0091B0
:10026000BB0000930E01089504E80093BC00F3CF97
:100270000091B900087F011709F4089504E900937B
:10028000BC0008954F9345EA4A95F1F7000000003D
:100290001A94C9F74F9108950F930AE700000A9541
:1002A000E9F700000F910895000000000000000031
:1002B000000000000000000000000000000000003E
:1002C000000000000000000000002A9569F7089572
:1002D0004F935F936F9364E155EA44E64A95F1F7D3
:1002E0005A95D9F700006A95B9F700006F915F91B0
:1002F0004F9108955F933F9337EF5AE15A95F1F785
:100300003A95D9F700002A95B9F73F915F91089582
:100310000F931F932F933F934F9320E137E246D0E3
:10032000403021F030E3430F49930BC040E2499342
:1003300028EE33E03BD0403059F030E3430F49938F
:1003400009C028EE33E032D030E3430F499302C0B6
:1003500040E2499324E630E029D030E3430F49934B
:100360002AE030E023D030E3430F499330E3030F1A
:1003700009934F913F912F911F910F9108950F93E2
:100380001F932F933F934F9324E630E00FD02AE042
:1003900030E00CD030E3430F499330E3030F09936F
:1003A0004F913F912F911F910F9108954FEF4395DA
:1003B000021B130BE0F7020F131F08954427552764
:1003C00060E1000F111F441F551F4217530718F01B
:1003D0000395421B530B6A95A1F708950F9302955D
:1003E00011270F70102F2227010F23952930E1F7D5
:1003F000102F0F910F70010F08950A3088F00F939E
:1004000022271AE0011B23952A30E4F7332700271F
:10041000310F03950217E1F70F91031B2295030F8C
:10042000089504B1036004B904B10C6004B905B1C6
:10043000006205B97BD02A9801E0A1D022E05ADF02
:10044000E4E3F0E000E83ED0ECE3F0E000EC3AD08A
:1004500008953F932F931F9338E011270EEF0F93CA
:1004600028E02898001F10F0299801C0299A289A9E
:100470002A95B9F728980F911D9904C00F930095FC
:10048000100F0F910894001F3A9549F7012F1F9103
:100490002F913F910895EF93FF932F931F930F9305
:1004A0002A986DD027E200DF2A9A18E0019167D0E0
:1004B00027E2FADE1A95D1F70F911F912F91FF9144
:1004C000EF910895EF93FF932F931F930F932A9823
:1004D00056D027E2E9DE2A9A18E0059150D027E2AB
:1004E000E3DE1A95D1F70F911F912F91FF91EF91B4
:1004F0000895CF93DF930F931F93C0E0D1E008DFFF
:10050000E0E0F1E0022FC7DF1F910F91DF91CF9163
:100510000895EF93FF93E0E2F1E024E0239FE00DE4
:10052000F11D04E0CFDFFF91EF9108952A982B98F9
:1005300024E1E0DE00E323D025E0DCDE00E31FD091
:1005400024E6B2DE00E31BD028ECAEDE08E317D0D1
:1005500028ECAADE08E013D028ECA6DE01E00FD0DC
:1005600022E0C8DE06E00BD028EC9EDE0CE007D0CF
:1005700028EC9ADE00E803D028E296DE08950F9377
:100580002F933F9338E0289800000000001F10F0E0
:10059000299801C0299A0000000000000000289A54
:1005A0003A9589F72898000000002B9A0000000077
:1005B00000000000000000002B983F912F910F9148
:1005C00008954091170142954F70542F40911801A2
:1005D0004295407F450F409316010895CF93DF93D6
:1005E0000F931F93C0E0D1E0009116011127C7DEE1
:1005F00000E2099303E4099300E209930993099344
:100600000993E0E0F1E000E846DF1F910F91DF91F0
:10061000CF91089570D0603059F44CEC44D04EEB3B
:1006200042D033D04093170130D040931801089541
:100630000895613079F7EECF5ED0603001F54CEC73
:1006400032D044EB30D01FD010F491E001C090E0E4
:1006500052D06030E9F74CEC26D044E424D09030FE
:1006600059F4409A000040982FEF1EDE2FEF1CDE59
:100670002FEF1ADE409A089506D0F0F708950895F6
:100680006130D1F6D9CF2AD00895F89458E026D019
:1006900047955A95E1F77894089518F00FD078941B
:1006A000089514D00895F89458E0479510F006D0B6
:1006B00001C00CD05A95C9F778940895389A40989B
:1006C0002AE5F2DD409A25E0EFDD0895389A40985A
:1006D00025E0EADD409A2AE5E7DD0895389A40985A
:1006E00025E0E2DD389824E1DFDD88943099089434
:1006F00023E2DADD0895389A40982AEFD5DD2AEF13
:10070000D3DD28ECD1DD409A38982CE3CDDD30994B
:100710000CC02AEFC9DD2AEFC7DD2AEFC5DD409BFB
:1007200002C06627089562E0089561E00895189573
:100730001895BF93AF930F930FB70F9379DD00ED2B
:1007400000930D017DDD18E193DD00E000930D01C4
:1007500077DD18E28DDD6CDD01ED00930D0170DDBC
:1007600010E486DD75DD10E583DD00910E0136DED7
:1007700000930F016DDD10E57BDD00910E012EDE93
:100780000093100171DD18E573DD00910E0126DE86
:100790000093110173DD25DDA0910801B0910901DD
:1007A00011970A2F0B2B79F4A2E3B0E000910B0113
:1007B000039500930B01043108F405C024982C988C
:1007C000002700930B01A0930801B09309010F913A
:1007D0000FBF0F91AF91BF911895000022DE00EB83
:1007E00000930C011DDD01E000930A0100C0789424
:1007F00023DF10DFE6DEF2DE28EC7CDD2ADE0030CF
:10080000B1F308942C9B889430F0249A2C9A2227D8
:1008100020930B0160F705FD10C006FD0FC004FD1D
:100820000EC007FD0DC003FD0CC002FD0BC000FD96
:100830000AC001FD09C008C0DACFFECFFDCFFCCF52
:0C084000FBCFFACFF9CFF8CFF7CFC7CF2E
:00000001FF
