:020000020000FC
:1000000012C0189518951895189518951895189563
:100010001895189518951895189518951895189578
:10002000189518951895F89404E00EBF0FE50DBFCC
:1000300008B1006808B90BB700640BBF05B70260D0
:1000400005BF00E000BF0FEF07BB00E008BB0BEFF0
:1000500001BB04E002BB0FEF04BB00E005BBA895A9
:1000600001B5086101BD00E001BD0027112722276D
:1000700033274427EE27FF27789401C0FECF00E8FE
:100080001395010F222725D02830C9F32395001F8F
:1000900008F009C0A89A929A3FE00ED09298A898CA
:1000A0003FE00AD0F1CFA89892983FE005D0929A0D
:1000B000A89A3FE001D0E8CF4F933F93303009F446
:1000C00031E046EA4A95F1F73A95D9F73F914F91D9
:1000D00008954F935F936F936FEF5FEF4FEF4A95E4
:1000E000F1F75A95D9F76A95C1F76F915F914F91E2
:0200F000089571
:00000001FF
