:020000020000FC
:1000000082C030C0189518951895189518951895B0
:10001000189509C01895189518951895189518955C
:100020001895189518950F931F932F9300916000C2
:100030001091000020916200273009F443D008BBE2
:1000400009B70F7F09BF002703BF00271127222709
:100050000093600010930000209362002F911F9185
:100060000F911895F8940F931F932F9300916000B0
:1000700010910000209162002030A9F421E020932B
:10008000620001E00093600011271093000000E07F
:1000900002BF09B7016009BF04E003BF2F911F91A0
:1000A0000F917894189532B7343640F43B3418F4F5
:1000B00000FF12C013C000FF11C012C000FFC0CF6C
:1000C00012C014C08894001F111F2395089508942E
:1000D000001F111F23950895F5DF08C0F8DF06C043
:1000E000F1DFF0DF03C0EEDFF2DF00C0009360005D
:1000F0001093000020936200002702BF2F911F91F0
:100100000F9178941895F89404E00EBF0FE50DBF99
:1001100008B1006808B90BB700640BBF05B70260EF
:1001200005BF04E000BF0FEF07BB00E008BB0BEF0B
:1001300001BB00E002BB0FEF04BB00E005BBA895CC
:1001400001B5086101BD00E001BD0027112722278C
:1001500033274427EE27FF270027009360000093F2
:100160000000009363000093620078940000FECFCB
:100170004F933F93303009F431E046EA4A95F1F766
:100180003A95D9F73F914F9108954F935F936F93AD
:100190006FEF5FEF4FEF4A95F1F75A95D9F76A95F0
:0A01A000C1F76F915F914F91089530
:00000001FF
