:020000020000FC
:1000000038C018951895189518951895189518953D
:100010001895189518951895189518951895189578
:10002000FCC1189518953F065B4F666D7D077F6F85
:10003000FFD7CBC2B9B1AAA1988C3A52532D34380C
:10004000352B3A50432D4156522B49444D4B42508B
:1000500052465346E199FECF1FBB0EBB4DBBE29A01
:10006000E19A0895E199FECF1FBB0EBBE09A4DB314
:100070000895F89404E00EBF0FE50DBF00E007BB44
:1000800000E008BB00E004BB00E005BB00E001BBF2
:1000900000E002BB00E808B900E805BFF894A895A5
:1000A00004B7007004BF0091210008610093210093
:1000B00000E000932100002711272227332744273F
:1000C000EE27FF2702E0009360007894ACC1A3956F
:1000D000A73040F49AE038D09A95E9F70AB700645F
:1000E0000ABF1895AA27F6CFAA95AF3F40F49AE029
:1000F0002BD09A95E9F70AB700680ABF1895A6E0D1
:10010000F6CF09B70F7F09BF002703BF909A31E0F0
:1001100011D090981895F0E0E0E310916000E10FA5
:100120001127F11F049102BF09B7016009BF03E065
:1001300003BF18954F9345EA4A95F1F70000000078
:100140003A95C9F74F9108950F930AE700000A9571
:10015000E9F700000F9108954F935F936F9364E167
:1001600055EA44E64A95F1F75A95D9F700006A95A1
:10017000B9F700006F915F914F91089504E610E088
:100180000CD00092B5000AE010E007D00092B60053
:10019000922F0AD00092B70008959FEF9395201BED
:1001A000310BE0F7200F311FF0E0E6E2E90F99276D
:1001B000F91FC89508950FEF07BB00EF08BB00E0DB
:1001C00001BB00E002BB05B70F6005BF0BB7006CB9
:1001D0000BBF5A2F0000000058BB8895FACF0FEFD5
:1001E00007BB00EF08BB00E001BB00E002BB05B7A6
:1001F0000F6005BF0BB7006C0BBF8895FECFC09A90
:10020000552798E09A95F1F740B34C704C3059F06F
:1002100090E1542F40B34C705417D9F79A95C9F711
:1002200060E0562758BB18950FEF07BB00EF08BBDF
:1002300000E001BB00E002BB40B34F704F30E1F380
:10024000552790E1542F40B34F705417D9F79A9522
:10025000C9F760E0562758BBEFCF0FEF07BB00EFA1
:1002600008BB07E001BB00E002BB42B3476042BBF2
:1002700040B34877D1F3552790E160E09198929888
:1002800040B3487709F00DC061E09098919A40B36F
:10029000487709F006C062E09198929A40B3487797
:1002A00021F3542F839941E0849944E0859947E0F4
:1002B00086994AE05417A9F79A9599F7560F6FE077
:1002C000562758BBD2CF0FEF07BB00EF08BB41E06A
:1002D000992788940EF40894E894441F08F46894CD
:1002E00029DF9395903229F0542F6FE0562758BBA1
:1002F000F0CF41E09927403809F46894413009F47F
:10030000E8948894A0FD0894441F16F447954795F7
:10031000AA2708F4A1E00EDF9395903429F0542F1A
:1003200060EF562758BBE7CF43E0992788940EF437
:100330000894E894441F08F46894FCDE9395903286
:1003400029F0542F6FE0562758BBF0CF4AE5992784
:10035000542FF0DE9395903209F4B9CF6FEF562702
:1003600058BBF7CF0FEF01BB00E002BB4FEF439547
:10037000403109F4442742BBEFDEF9CF0FEF07BB52
:1003800000E008BB00EC01BB00E002BB4FEF3327ED
:100390004395242F243609F444270AE010E0FDDEBB
:1003A00008BA979A922F00DFD7DE979808BA969AE4
:1003B000D3DE9698EDCF0FEF07BB00E008BB00EC53
:1003C00001BB00E002BB1FEF13951A3009F411279F
:1003D000F0E0E6E2E10F2227F21F249128BB979A72
:1003E000BBDE9798F1CFF8940FEF07BB08BB000076
:1003F000000000000000000000000FEF07BB002716
:1004000008BB0000000000000000EDCF0FEF07BBAD
:1004100000E008BB0BE008B9089500C008B311E084
:10042000012708BB18957894F1DF00008895FDCF6F
:02043000FACF01
:00000001FF
