:020000020000FC
:1000000030C0189518951895189518951895189545
:10001000189551C0189518951895189592C020C03C
:100020001895189518957E1873791D6D6F387F7D1A
:100030001000200000010002000400080010000170
:100040000203E199FECF2FBB1EBB0DBBE29AE19AE2
:100050000895E199FECF2FBB1EBBE09A0DB3089522
:100060001895F89404E00EBF0FE50DBF0FE307BB32
:1000700000E008BB00E304BB00E005BB0FEF01BBE1
:1000800000E002BB00E808B905E003BF01E009BFDA
:1000900002EB02BF00E007B90FE806B9F894A89593
:1000A00004B7077F04BF01B5086101BD00E001BDD1
:1000B00090C118951895EF93FF930F931F930FB767
:1000C0000F930BEF02BF0E2D073009F4EE24E3E788
:1000D000F0E00027EE0DF01F108108B3007C1F73C5
:1000E000012B08BB108102B30F72107D012B02BBE4
:1000F000E0E3F0E088940E2D000FE00F0027F01FE2
:1001000005B30F7C15911073012B05BB02B3007E64
:1001100014911F71012B02BBE394EEE3F0E0EF0DAD
:100120002227F21F049127B1207F202B27B906B187
:10013000006406B93F912F911F910F910FBF0F914E
:1001400018950F930FB70F931F932F933F9304B1FD
:1001500015B1EFEAF0E0EF0D2227F21F09940FC06E
:1001600034C05FC086C0009160001091610001172B
:1001700018F48D9A959808958D9A959A08951695E4
:1001800007951695079500936100EDDF44D0A3C055
:10019000009168001091690028EE33E020173107C4
:1001A00020F40091660010916700202F312F0091FC
:1001B0006E0010916F00200F311F36952795209308
:1001C0006C0030936D00E2D0089520916200309170
:1001D0006300200F311F2093620030936300009171
:1001E00070000395009370000832A1F436952795AE
:1001F00036952795369527952093660030936700AE
:10020000002700937000C4DF002700936200009372
:10021000630001D060C0F3940F2D043009F4FF2473
:1002200008952091640030916500200F311F2093C4
:100230006400309365000091710003950093710094
:10024000003241F7002700937100369527953695C7
:1002500027953695279536952795209368003093F6
:10026000690096DF00270093640000936500D3DFE8
:1002700032C020916A0030916B00200F311F209313
:100280006A0030936B0016950795169507950093B5
:10029000600069DF009172000395009372000032E4
:1002A000D1F4369527953695279500916E001091DB
:1002B0006F00200F311F3695279520936E003093E5
:1002C0006F004DD000270093720000936A000093E6
:1002D0006B00A1DF00C03F912F911F910F910FBFC5
:1002E0000F9118954F9345EA4A95F1F700000000E9
:1002F0001A94C9F74F9108950F930AE700000A95E1
:10030000E9F700000F910895220F0000000000009F
:1003100000000000000000002A95B9F708954F93EF
:100320005F936F9364E155EA44E64A95F1F75A9575
:10033000D9F700006A95B9F700006F915F914F916E
:1003400008954F933F9337EF5AE15A95F1F73A9555
:10035000D9F700002A95B9F73F914F91089500E130
:1003600017E229D0002D00680093760008EE13E014
:1003700022D00092770004E610E01DD000927800B1
:100380000AE010E018D000927900089500E117E229
:1003900012D008EE13E00FD00092730004E610E0D4
:1003A0000AD0002D0068009374000AE010E003D02A
:1003B0000092750008954FEF4395201B310BE0F735
:1003C000200F311FF0E0E6E2E40F4427F41FC89548
:1003D000089506B1006406B90027009364000093F5
:1003E0006500009362000093630000936A0000932D
:1003F0006B000093700000937100009372000093F3
:0C04000060000093610078940000FECFC3
:00000001FF
